:020000040800F2
:100000001004002005010008171000088D0D0008DD
:10001000151000084D010008ED1000080000000058
:100020000000000000000000000000003B1000087D
:100030004F01000800000000391000083D100008C2
:100040001F0100081F0100081F0100081F01000810
:100050001F0100081F010008510100086D01000880
:1000600073010008790100087F0100081F010008E2
:100070001F0100081F0100081F0100081F010008E0
:100080001F0100081F0100081F0100081F010008D0
:100090001F0100081F0100081F010008850100085A
:1000A0001F0100081F0100081F0100081F010008B0
:1000B0001F0100081F010008000000001F010008C8
:1000C0001F01000800000000000000001F010008E0
:1000D000000000001F0100081F01000800000000D0
:1000E000570100081F0100081F010008DFF810D0A9
:1000F00000F01AF80048004729110008AFF300800B
:10010000100400200648804706480047FEE7FEE747
:10011000FEE7FEE7FEE7FEE7FEE7FEE7FEE7FEE7B7
:10012000A5100008ED000008064C074D06E0E06849
:1001300040F0010394E8070098471034AC42F6D32E
:10014000FFF7D8FF5C1300087C130008FEE7704738
:10015000012000F085B810B54FF4806000F080F801
:10016000BDE810404FF4006000F07AB8022000F0C3
:1001700077B8042000F074B8082000F071B810209F
:1001800000F06EB810B5202000F06AF8402000F0B2
:1001900067F8802000F064F84FF4807000F060F899
:1001A000BDE810404FF4007000F05AB831B500F0CF
:1001B0004BF9044600F048F90099001B8842F9D336
:1001C00038BD00002049402833D011DC08282BD04E
:1001D00008DC012822D0022823D0042814D14FF4AF
:1001E0004F7010E0102822D020280DD1174813E0BE
:1001F000B0F5007F23D008DC80281DD0B0F5807FCB
:1002000002D14FF40F7008807047B0F5806F18D09E
:10021000B0F5006FF8D10E48486070474FF47D701C
:10022000F1E740F28F30EEE74CF22330F4E7094873
:10023000F2E740F2C120E6E740F26B20E3E7064830
:10024000EAE70648E8E7000004000020B00D0300DC
:10025000E025090048860100681906000EA4070081
:10026000044910B50A68024202D00860FFF7AAFFED
:1002700010BD0000140401402DE9F84FDFF894A1EF
:1002800000220AF1040B14464FF0010C4FF00F0945
:100290000BF1040E0B680CFA04F52B40AB4271D144
:1002A0005D4E4F68A7EB0608B7422BD00DDC032F3D
:1002B00034D005DC37B3012F19D0022F2FD11BE02A
:1002C000112F16D0122F2AD119E0B8F5881F19D096
:1002D00006DCB8F5803F15D0B8F5801F1FD111E0BE
:1002E000B8F5001F0ED0B8F5041F18D10AE0CA688F
:1002F00015E0CA68121D12E0CA6808320FE0CA6829
:100300000C320CE08A682AB1012A4FF0080203D0AF
:10031000456104E0042202E0056100E00022FF2BB9
:1003200001D8074601E000F104074FEA840601D92D
:10033000A6F120063D6809FA06F825EA080502FA42
:1003400006F645EA06053D604D68ED005CD5334D87
:10035000AE6946F00106AE61AD6924F0030605F012
:10036000010500952E4D7719BD68A607360F09FACD
:1003700006F825EA0805DFF8AC80404503D14FF0C8
:10038000000810E040E0DFF8A080404502D14FF0C7
:10039000010808E0DFF89480404502D14FF00208E0
:1003A00001E04FF0030808FA06F848EA0508C7F824
:1003B00008804D68ED0305D5DAF800501D43CAF8F2
:1003C000005004E0DAF800609E43CAF800604D680F
:1003D000DBF80060AD035D4601D51E4300E09E439F
:1003E0002E604D68DEF80060ED02754601D51E43B3
:1003F00000E09E432E604D68AD020D4D2E6801D584
:100400001E4300E09E432E60641C102CFFF442AF9C
:10041000BDE8F88F000401400000111000100240F8
:100420000000014000080140000C014000100140A4
:100430000C0401408068084000D0012070470AB1D8
:10044000016170470904FBE701480068704700003C
:100450000C00002002480168491C01607047000040
:100460000C000020074810B5016841F01001016040
:10047000032000F087F8002000F006F800F016F8DE
:10048000002010BD0020024010B5044600F050F9D5
:100490004FF47A71B0FBF1F000F060FC00222146CD
:1004A000501E00F04FF8002010BD00001D4808B598
:1004B000816941F001018161806900F001000090D3
:1004C000032000F05FF8002211466FF00B0000F0EF
:1004D00039F8002211466FF00A0000F033F80022CC
:1004E00011466FF0090000F02DF800221146501F50
:1004F00000F028F800221146101F00F023F8002217
:100500001146901E00F01EF800221146501E00F009
:1005100019F80548416821F0E06141F080614160CF
:1005200008BD0000001002400000014000F01F0262
:10053000012191404009800000F1E020C0F8001145
:1005400070470000F0B40E4B1B680C46C3F3022347
:10055000C3F10705042D00D90425191D072901D26F
:10056000002300E0DB1E012606FA05F1491E2140AA
:1005700099409E40761E16403143F0BC00F04CBDC1
:100580000CED00E0064900F0070208684FF6FF0393
:10059000184040EA0220034A1043086070470000F8
:1005A0000CED00E00000FA052DE9F047DFF870815E
:1005B00005460E46D8F8000000F00700B0420CD205
:1005C000D8F8001021F007013143C8F80010D8F81E
:1005D000000000F00700B04277D12878514C800726
:1005E00005D56068A96820F0F000084360602878AD
:1005F000C00759D06968012001290DD0022929D0EE
:100600005FF0020393FAA3F2B2FA82F242F0200200
:10061000520904D0226803E04FF40033F2E7626A23
:1006200093FAA3F3B3FA83F303F01F039840024253
:100630004BD0606820F0030008436060FFF704FFC0
:100640006968074641F2883001290DD002298146A8
:1006500017D025E04FF00073D4E700BFFFF7F4FE9A
:10066000C11B494501D918E081466068C0F381008B
:100670000128F3D118E000BFFFF7E6FEC11B494592
:100680000BD86068C0F381000228F5D10CE000BFF0
:10069000FFF7DAFEC11B494502D90320BDE8F08708
:1006A000606810F00C0FF3D1D8F80010404601F04C
:1006B0000701B1420BD9016821F007013143016004
:1006C000006800F00700B04201D00120E6E728787A
:1006D000400705D56068E96820F4E0600843606081
:1006E0002878000706D56068296920F4605040EA40
:1006F000C100606000F022F86168F02292FAA2F274
:1007000001F0F001B2FA82F2D140074A515CC840D0
:10071000064908600020FFF7B7FE0020BEE7000092
:1007200000200240001002404C130008000000208E
:1007300001480068704700000000002010B519A3B0
:1007400085B00FCB8DE80F001AA01B4B00680490FA
:100750005A681A4802F00C0104291DD008291BD13F
:100760004FF4701494FAA4F402F47011B4FA84F4FF
:10077000E140D2031DF8011010D55A684FF4003340
:1007800093FAA3F302F40032B3FA83F3DA4004AB32
:100790009A5CB0FBF2F0484305B010BD08484843EE
:1007A000FAE7000002030405060708090A0B0C0D0E
:1007B0000E0F1010010200000010024000127A001B
:1007C00000093D002DE9F84F04460078F74DC007B9
:1007D0004FF0010625D068687704C0F38100012836
:1007E00007D06868C0F3810002281BD16868C00385
:1007F00018D597FAA7F0B0FA80F040F02000400931
:1008000001D0286800E0686A97FAA7F1B1FA81F18F
:1008100001F01F0106FA01F108425ED0606800286D
:100820007CD05AE06068B0F5803F0BD010B1B0F5D5
:10083000A02F11D0286820F480302860286820F488
:10084000802002E0286840F480302860606828B387
:10085000FFF7FAFD80460BE0286840F4802028600E
:10086000F0E700BFFFF7F0FDA0EB0800642871D8A7
:1008700097FAA7F0B0FA80F040F02000400901D0CC
:10088000286800E0686A97FAA7F1B1FA81F101F0EF
:100890001F0106FA01F10842E4D01EE0FFF7D4FD83
:1008A000804605E0FFF7D0FDA0EB08006428DED805
:1008B00097FAA7F0B0FA80F040F02000400901D08C
:1008C000286800E0686A97FAA7F1B1FA81F101F0AF
:1008D0001F0106FA01F10842E4D12078DFF8D08246
:1008E00080074FF000094FF002075BD568684FF0B2
:1008F000F80B10F00C0F07D06868C0F381000228D5
:100900001CD16868C00319D497FAA7F0B0FA80F038
:1009100040F02000400902D0286801E08BE0686ABE
:1009200097FAA7F1B1FA81F101F01F0106FA01F17E
:1009300008422CD0206901287DD128E0206990B39D
:1009400096FAA6F0B0FA80F048F82060FFF77CFD38
:10095000824607E011E100BFFFF776FDA0EB0A0039
:10096000022884D897FAA7F0B0FA80F040F020006F
:10097000400901D0286800E0686A97FAA7F1B1FA47
:1009800081F101F01F0106FA01F10842E4D0286864
:100990009BFAABF26169B2FA82F220F0F800914062
:1009A0000843286025E0FFE796FAA6F1B1FA81F145
:1009B00048F82190FFF748FD824605E0FFF744FD27
:1009C000A0EB0A000228CCD897FAA7F0B0FA80F082
:1009D00040F02000400901D0286800E0686A97FADA
:1009E000A7F1B1FA81F101F01F0106FA01F1084205
:1009F000E4D1207800076ED5A069B8B396FAA6F0C6
:100A0000B0FA80F008EB8000C0F88064FFF71CFDAE
:100A1000824605E0FFF718FDA0EB0A000228A0D8E7
:100A200097FAA7F0B0FA80F040F06000B6EB501FE4
:100A300002D128680CE062E197FAA7F0B0FA80F0E2
:100A400040F06000B7EB501F01D1286A00E0686AEF
:100A500097FAA7F1B1FA81F101F01F0106FA01F24C
:100A60001042D7D00120FFF7A1FB34E0FFE796FA50
:100A7000A6F1B1FA81F108EB8101C1F88094FFF78A
:100A8000E3FC824606E000BFFFF7DEFCA0EB0A00B5
:100A9000022872D897FAA7F0B0FA80F040F0600010
:100AA000B6EB501F01D128680BE097FAA7F0B0FA17
:100AB00080F040F06000B7EB501F01D1286A00E0E1
:100AC000686A97FAA7F1B1FA81F101F01F0106FAFD
:100AD00001F21042D8D12078400765D5E86940F08E
:100AE0008050E861E869DFF8CCB000F080500090F9
:100AF000DBF8001041F48071CBF80010FFF7A4FC84
:100B0000824605E0FFF7A0FCA0EB0A00642834D879
:100B1000DBF80000C005F5D5E06801280AD008B16F
:100B2000052813D0286A20F001002862286A20F0E6
:100B3000040002E0286A40F001002862E06841F207
:100B4000883B90B3FFF780FC82460BE0286A40F0B8
:100B500004002862EEE700BFFFF776FCA0EB0A0175
:100B600059450AD897FAA7F0B0FA80F040F0400053
:100B7000B6EB501F02D128680CE0A3E097FAA7F06B
:100B8000B0FA80F040F04000B7EB501F01D1286A66
:100B900000E0686A97FAA7F1B1FA81F101F01F024B
:100BA00006FA02F10842D7D031E005E00010024019
:100BB0000000424200700040FFF746FC824605E01C
:100BC000FFF742FCA0EB0A0159457BD897FAA7F042
:100BD000B0FA80F040F04000B6EB501F01D1286819
:100BE0000BE097FAA7F0B0FA80F040F04000B7EBC6
:100BF000501F01D1286A00E0686A97FAA7F1B1FA9C
:100C000081F101F01F0206FA02F10842D8D1E06931
:100C100080B36968C1F38101022970D04FF08071FF
:100C20004F000228484609D091FAA1F1B1FA81F1AA
:100C300048F82100FFF708FC044669E08A4691FA6B
:100C4000A1F1B1FA81F1C14648F82100FFF7FCFBA0
:100C5000804605E0FFF7F8FBA0EB0800022854D817
:100C600097FAA7F0B0FA80F040F02000400902D0D7
:100C7000286801E061E0686A97FAA7F1B1FA81F1AA
:100C800001F01F0106FA01F10842E3D1206AB0F534
:100C9000803F05D16868A16820F40030084368608F
:100CA000D4E908010843696821F4741108436860B5
:100CB0009AFAAAF0B0FA80F049F82060FFF7C4FB76
:100CC000044606E021E000BFFFF7BEFB001B022840
:100CD0001BD897FAA7F0B0FA80F040F02000400946
:100CE00001D0286800E0686A97FAA7F1B1FA81F1AB
:100CF00001F01F0106FA01F10842E5D01DE01EE0F7
:100D0000FFF7A2FB001B022802D90320BDE8F88FE1
:100D100097FAA7F0B0FA80F040F02000400901D027
:100D2000286800E0686A97FAA7F1B1FA81F101F04A
:100D30001F0106FA01F10842E2D10020E6E7012096
:100D4000E4E74FF0E0210428086903D020F0040014
:100D50000861704740F00400FAE7704710B5401E84
:100D6000B0F1807F01D3012010BD4FF0E02460611D
:100D70000F21601700F050F90020A06107202061CA
:100D8000002010BD10B5FFF7E8FF10BDFEE710B55D
:100D9000382000F067F80C2000F064F8062000F01E
:100DA00061F8BDE81040012000F05CB809B14030A6
:100DB000C0B240F0800000F055B810B51446FFF7FF
:100DC000F5FF2046BDE8104000F07EB870B514462F
:100DD0000D460646FFF7EAFF3034E2B229463046B8
:100DE000BDE87040FFF7E9BF70B51D461446FFF738
:100DF000DDFF03E014F8010B00F066F86D1EEDB2A4
:100E0000F8D270BD70B51648016841F0FF0101606D
:100E1000134C81140C3C00222046FFF710FB0122EA
:100E2000D1022046FFF70BFB0122960231462046F5
:100E3000FFF705FB012231462046FFF700FB80212A
:100E40002046FFF7F7FA05460120FFF7AFF9002229
:100E500031462046FFF7F3FA002DEBD170BD0000BC
:100E60000C0C014070B50446FFF7CCFF154D002275
:100E70004FF480512846FFF7E2FA0022E914284691
:100E8000FFF7DDFA2E15002231462846FFF7D7FA84
:100E9000012000F03BF9012231462846FFF7CFFA46
:100EA00008480C30016844F47F4211400160002280
:100EB00031462846FFF7C3FABDE870404FF4C870CA
:100EC00000F024B9000C014070B50446FFF79AFF0A
:100ED000124D012211032846FFF7B1FA0022E9144E
:100EE0002846FFF7ACFA1E2000F010F90122960206
:100EF00031462846FFF7A3FA08480C30016844F44D
:100F00007F4211400160002231462846FFF797FAE0
:100F1000BDE870404FF4C87000F0F8B8000C014014
:100F200070B5384886B0816941F0100181618169EE
:100F300001F010010491816941F00801816180692B
:100F4000012400F00800049040F6FF7000902E4845
:100F5000CDE9010469462D48FFF78EF9FF20009086
:100F600011202B4E02250190694603953046FFF76C
:100F700083F94FF4E050CDE900046946039530460B
:100F8000FFF77AF9002241F6FF413046FFF757FAA2
:100F9000002211460620FFF7D5FA0620FFF7C6FA11
:100FA000002211460720FFF7CDFA0720FFF7BEFA0F
:100FB000002211460820FFF7C5FA0820FFF7B6FA0D
:100FC000002211460920FFF7BDFA0920FFF7AEFA0B
:100FD000002211460A20FFF7B5FA0A20FFF7A6FA09
:100FE000002211461720FFF7ADFA1720FFF79EFAEF
:100FF000002211462820FFF7A5FA2820FFF796FACD
:1010000006B070BD00100240000021100010014029
:10101000000C0140FEE770470907090E002806DAB8
:1010200000F00F0000F1E02080F8141D704700F17F
:10103000E02080F8001470477047704710B5FFF744
:1010400009FABDE81040FFF79DBE10B590B0022030
:101050000090012004901020002405900794684619
:10106000FFF7B0FB00B1FEE70F20CDE90A040C94B6
:101070000D9400210AA80E94FFF796FA00B1FEE73E
:10108000FFF756FB4FF47A71B0FBF1F0FFF766FE05
:101090000420FFF756FE00221146501EFFF752FAB9
:1010A00010B010BD0D48016841F0010101604168B8
:1010B0000B4A1140416001680A4A11400160016811
:1010C00021F480210160416821F4FE0141604FF468
:1010D0001F0181600449C00308607047001002408E
:1010E0000000FFF8FFFFF6FE08ED00E0FEE702E07B
:1010F00008C8121F08C1002AFAD1704770470020A3
:1011000001E001C1121F002AFBD1704710B504464F
:10111000FFF70EFB0349B0FBF1F16143491EFDD21D
:1011200010BD000000093D004FF0010A92B0544686
:10113000FFF798F9FFF789FFFFF7F2FEFFF727FEA9
:101140000A20FFF733F800210C2376A20846FFF7A8
:101150004BFE0D2377A201210020FFF745FE4FF43F
:10116000FA70FFF723F80120FFF77CFE601C059062
:10117000A01C0C90E01C0F90201D0E90601D0D9087
:10118000601C0B90A01C0A90E01C0990201D089088
:10119000601D0790A01D0490E01D64270690694D16
:1011A000DFF8A481401C4FF00A0B4FF47A7642F22C
:1011B0001079039028880021B0FBF6F0C2B25046A7
:1011C000FFF704FE2E2200210598FFF7F6FD288880
:1011D000B0FBF6F106FB1100B0FBF7F0C2B2002144
:1011E0000C98FFF7F3FD2888B0FBF6F106FB110021
:1011F000B0FBF7F107FB1101B1FBFBF200210F98E7
:10120000FFF7E4FD2888B0FBF6F106FB1100B0FB08
:10121000F7F107FB1101B1FBFBF20BFB12120021EE
:101220000E98FFF7D3FD412200210D98FFF7C5FD71
:10123000696891FBF8F0C2B201212046FFF7C6FDB4
:10124000696891FBF8F208FB121191FBF9F0C2B248
:1012500001210B98FFF7BAFD696891FBF8F208FBD2
:10126000121191FBF9F209FB121090FBF6F0C2B2D9
:1012700001210A98FFF7AAFD2E2201210998FFF704
:101280009CFD696891FBF8F208FB121191FBF9F2E1
:1012900009FB121090FBF6F106FB110090FBF7F032
:1012A000C2B201210898FFF791FD696891FBF8F23D
:1012B00008FB121191FBF9F209FB121090FBF6F1F9
:1012C00006FB110090FBF7F107FB110191FBFBF00E
:1012D000C2B201210798FFF779FD696891FBF8F226
:1012E00008FB121191FBF9F209FB121090FBF6F1C9
:1012F00006FB110090FBF7F107FB110191FBFBF2DC
:101300000BFB1210C2B201210498FFF75FFD4822C7
:1013100001210698FFF751FD7A2201210398FFF77A
:101320004CFD47E74B657920436F6E74726F6C20FC
:101330000000000043757272656E7420467265711C
:101340007500000004000020A086010000000000DD
:101350000000000001020304060708097C130008CE
:101360000000002010000000EE1000088C130008A0
:101370001000002000040000FE10000800A24A0433
:0C13800000000000000000000000000061
:04000005080000ED02
:00000001FF
