:020000040800F2
:10000000C0040020050100083F2300089D1F0008D0
:100010003D2300085D05000843280008000000009B
:100020000000000000000000000000006323000842
:100030006D07000800000000612300086523000828
:100040001F0100081F0100081F0100081F01000810
:100050001F0100081F0100081F0100081F01000800
:100060006F070008750700081F0100081F0100083E
:100070001F0100081F0100081F0100081F010008E0
:100080001F0100081F0100081F0100081F010008D0
:100090001F0100081F0100081F0100081F010008C0
:1000A0001F0100081F0100081F0100081F010008B0
:1000B0001F0100081F010008000000001F010008C8
:1000C0001F01000800000000000000001F010008E0
:1000D000000000001F0100081F01000800000000D0
:1000E0001F0100081F0100081F010008DFF810D0E1
:1000F00000F0B4F900480047A52C0008AFF30080D9
:10010000C00400200648804706480047FEE7FEE797
:10011000FEE7FEE7FEE7FEE7FEE7FEE7FEE7FEE7B7
:10012000DD230008ED000008202A04DB203A21FA34
:1001300002F00021704721FA02F3D040C2F1200200
:1001400091400843194670472DE9FE4F81EA0304A8
:1001500004F0004421F0004100944FF0000B23F024
:10016000004350EA01045ED052EA03045BD0C3F3BB
:100170000A54C1F30A552C44A4F2F3340194A0FBB1
:100180000254C1F3130141F48011C3F3130343F488
:10019000801301FB024400FB034E840A970A44EAE1
:1001A000815447EA8357A4FB076802958D0A05FB33
:1001B00007854FEA932C04FB0C542705029D4FEA58
:1001C000065847EA1637B5EB08056EEB070C870EA5
:1001D000920E47EA811742EA8312A7FB0201B6EBAF
:1001E0000B0164EB00042B0D43EA0C335E1844EB67
:1001F0001C50DA465146E7FB0201C5F313044FEAEF
:100200000B3343EA14534FEA0432019C43EA0603DA
:10021000A4F10C040294009CCDE900B400F0CFF8E6
:1002200003B0BDE8F08F00200146F9E70EB5C10F1D
:1002300080EAE0700844CA07002140F233438DE8A9
:100240000E000A460B4600F0BAF803B000BD0EB52A
:1002500040F2334102910021CDE900110A460B46DC
:1002600000F0ADF803B000BD20F00040C10DC0F3B8
:10027000160040F400007F2901DA0020704796291B
:1002800003DCC1F19601C840704796398840704739
:1002900070B5C1F30A5201F000450024C1F3130107
:1002A00040F2FF3341F480119A4201DA002070BD20
:1002B00040F233439A42A2F2334203DC5242FFF748
:1002C00033FF00E090402C43F1D0404270BD01F07C
:1002D000004330B421F0004150EA010206D00A0D7B
:1002E000A2F56072C1F31301002A02DC30BC0020C9
:1002F0007047440F44EAC104C100E01830BC00EB71
:10030000C25000F016B830B50B460146002020223E
:10031000012409E021FA02F59D4205D303FA02F512
:10032000491B04FA02F52844151EA2F10102F1DC72
:1003300030BD0029A8BF7047401C490008BF20F00D
:100340000100704710B4B0FA80FC00FA0CF050EADB
:10035000010404BF10BC704749B1CCF1200421FA5C
:1003600004F411FA0CF118BF012121430843A3EB57
:100370000C01CB1D4FEA00614FEA102042BF002064
:1003800010BC704700EBC35010440029A4BF10BC40
:100390007047401C490008BF20F0010010BC7047A6
:1003A00010B5141E73F1000408DA401C41F100017D
:1003B00092185B411A4301D120F0010010BD2DE9D4
:1003C000F04D92469B4611B1B1FA81F202E0B0FACB
:1003D00080F22032904600F053F804460F4640EA7F
:1003E0000A0041EA0B0153465A46084313D011460E
:1003F00053EA010019D0C8F140025046FFF794FEBD
:1004000005460E4650465946424600F039F8084324
:1004100005D0012004E020463946BDE8F08D0020DB
:10042000054346EAE0762C4337430A986305E40A1D
:10043000A0EB08000022FD0A44EA47540A3002D526
:1004400000200146E9E7010510196941DDE9084589
:1004500000196941BDE8F04DA2E70000064C074DC8
:1004600006E0E06840F0010394E807009847103484
:10047000AC42F6D3FFF73EFE5C2F00087C2F00084D
:10048000202A04DB203A00FA02F100207047914054
:10049000C2F1200320FA03F3194390407047000093
:1004A00070B5044600688168C943C9071CD18168DA
:1004B00021F00101816000F003FD05460FE000BF5F
:1004C00000F0FEFC401B022809D9A06A40F0100091
:1004D000A062E06A40F00100E062012070BD206887
:1004E0008068C043C007EBD0002070BDF8B500267F
:1004F0000446009600688168C943C90728D081680E
:1005000041F001018160134813490068B0FBF1F02C
:1005100000E0401E00900028FBD100F0D1FC054611
:1005200011E000BF00F0CCFC401B02280BD9A06AF0
:1005300040F01000A062E06A40F00100E06284F840
:1005400024600120F8BD20688068C043C007E9D15D
:100550000020F8BD0000002040420F00FEE7000030
:1005600070B516480024016821F47021016001680B
:1005700041F400210160124D04E0641CE4B201204A
:1005800002F02AFAD5F8100110B1C82CF5D30DE00D
:10059000C82C0BD2002404E0641CE4B2012002F059
:1005A0001BFAD5F8100118B1F02C04D3012070BD4E
:1005B000F02CF1D3FAE7002070BD000000080140E4
:1005C0000000214270B500F093F800F071F8FFF7D9
:1005D000C7FFCC2000F09AF8BE2000F097F800F09A
:1005E00057F8044600F054F8072805D9C043E14302
:1005F000C0B2CCB2002500E0012504EB002000B21F
:10060000FFF714FE0022054BFFF79EFDFFF740FEAB
:1006100000B2002D01D1404200B270BD0000E43FA5
:1006200010B500F045F8BDE81040FFF799BF000095
:1006300070B5154C206820F470202060206840F4CC
:1006400040302060114D0020C5F89001022005F5D2
:10065000C87502F0C1F901202860206820F47020DC
:100660002060206840F4002020600C2002F0B4F9E3
:1006700055F8800C08B1012400E00024322002F07B
:10068000ABF9204670BD0000000801400000214287
:1006900070B500255FF00104FFF7CAFFC001641CBC
:1006A00040EA5500E4B2C5B2082CF5D9284670BD21
:1006B0000D4810B5016821F470210160016841F412
:1006C00040310160094C0020C4F8900140F2EE2056
:1006D00004F5C87402F080F901202060BDE81040E4
:1006E0000F2002F079B9000000080140000021420B
:1006F00010B5FFF7DDFFFFF733FFCC2000F006F861
:10070000BDE81040442000F001B800002DE9F041A0
:1007100006461448016821F470210160016841F423
:10072000403101600125104C0027A84616F0010F4A
:100730004FEA5606C4F8907106D0022002F04CF938
:10074000C4F890813C2005E03C2002F045F9C4F853
:100750009081022002F040F96D1CEDB2082DE5D920
:10076000BDE8F081000801400000214270470420EC
:1007700000F0B2BA082000F0AFBA0000F8B50025CA
:10078000009590F82420AE46012A1ED0012280F860
:1007900024204A681F244FF47873072A17D206686A
:1007A000776B93FAA3FCBCFA8CFC521E02FB0CFC88
:1007B00004FA0CF4A74393FAA3F3B3FA83F30C6897
:1007C0005A439440274377632DE00220F8BD066822
:1007D0000D2A14D2376B93FAA3FCBCFA8CFCD21FFF
:1007E00002FB0CFC04FA0CF4A74393FAA3F3B3FA4C
:1007F00083F30C685A4394402743376313E0F76A46
:1008000093FAA3FCBCFA8CFC0D3A02FB0CFC04FA34
:100810000CF4A74393FAA3F3B3FA83F30C685A4397
:1008200094402743F7620A683823072406680A2A97
:1008300014D3F76893FAA3FCBCFA8CFC0A3A02FBC7
:100840000CFC04FA0CF4A74393FAA3F3B3FA83F372
:100850008C685A4394402743F76012E0376993FA53
:10086000A3FCBCFA8CFC02FB0CFC04FA0CF4A743BE
:1008700093FAA3F3B3FA83F38C685A439440274363
:1008800037610A68102A01D0112A20D1124B026860
:100890009A4217D193681B0219D4936843F400035A
:1008A00093600968102912D10C490D4A0968B1FBFF
:1008B000F2F101EB8101490000E0491E009100299D
:1008C000FBD104E0816A41F020018162012580F8BA
:1008D00024E02846F8BD000000240140000000206C
:1008E00040420F00806A70470068C06C704700008B
:1008F0002DE9F04104004FF0000513D0A06A002656
:1009000028B9E66284F82460204600F08BF820467F
:10091000FFF7C6FDA16AC90600D420B1A06A40F065
:100920001000A06278E0A16A21F4885141F0020130
:10093000A1626268E16902270A43E16897FAA7F7B2
:100940000B46B7FA87F7B9400A43A1684FF480779E
:10095000B94209D0012907D05FF00001D4F814C0D2
:10096000BCF1010F02D00AE03946F7E7F3B1A36A00
:1009700043F02003A362E36A43F00103E3622368C8
:10098000D3F804C02CF4694C4CEA010CC3F804C041
:1009900021688B68DFF884C003EA0C0313438B6083
:1009A000A168B94210D001290ED016E04FF4604C76
:1009B000A3699CFAACFCBCFA8CFC5B1E03FA0CF33A
:1009C0000B4343F40061DAE74FF47001256991FAB3
:1009D000A1F1B1FA81F16D1E8D402168CB6A23F43B
:1009E00070032B43CB62216889680D4B19409142FB
:1009F00008D1E662A16A21F0020141F00101A16281
:100A0000BDE8F081A06A20F0020040F01000A06272
:100A1000E06A40F00100E0620120F1E7FDF7E1FF4C
:100A2000FE0E1FFF00B500680A4985B088420FD14D
:100A30000948816941F4007181618069694600F467
:100A400000700490032000900190044800F050F9D9
:100A500005B000BD00240140001002400008014024
:100A60002DE9F84300260D460446009600F028FACA
:100A7000804620688168C90508D5A06A40F020003A
:100A8000A06284F824600120BDE8F8834168C905AC
:100A900003D4C06A10F4700F26D0022000F0C0FA10
:100AA00038490968B1FBF0F72068036936490B4201
:100AB0004FEA61014FEAA1121BD1C3684FEA611CE2
:100AC00013EA0C0F15D103690B4221D1C068104203
:100AD0001ED114201FE0681C06D045B300F0F0F9C9
:100AE000A0EB0800A84222D8206800688007F2D551
:100AF0002AE003690B4202D1C168114206D00269A3
:100B000022490A4206D1C068084203D1542002E0BB
:100B1000292000E0FC204743009813E0681C0ED019
:100B20002DB100F0CDF9A0EB0800A84207D9A06ACA
:100B300040F00400A06284F824600320A4E7009839
:100B4000401C0090B842E9D321686FF012000860A1
:100B5000A06A40F40070A06220688068C0F3424040
:100B600007280CD1E06850B9A06A20F48070A06218
:100B7000A06AC00403D4A06A40F00100A062002073
:100B800082E70000000000202449922449922400BA
:100B900070B5044690F8240001280DD0012084F897
:100BA00024002046FFF7A2FC02004FF0000005D011
:100BB00084F82400104670BD022070BDA16A40F286
:100BC0000123994341F48071A1621F4D23681F499D
:100BD000AB4218D10E6816F4702F14D0A66A46F4F2
:100BE0008016A6620E68760505D5A66A26F400561C
:100BF00046F48056A662A66AF6040AD5E66A26F08E
:100C00000606E66206E0A66A26F48016A6625E681C
:100C1000E9E7E06284F824006FF0020018602068C1
:100C20008368C3F34243072B05D1A84208D1096862
:100C300011F4702F04D0816841F480118160B9E70C
:100C4000816841F4A001F9E7002801400424014033
:100C500031B500F035F9044600F032F90099001B77
:100C60008842F9D338BD000010B5164C042814D0C2
:100C7000082825D114A001F0E5FD0021134801F05A
:100C8000A1F801220221204600F015F90022204699
:100C9000BDE81040082100F00EB90D48007800288A
:100CA0000ED10C494FF4FA7008600021074801F09A
:100CB00071F800220221204600F0FDF80122E6E74B
:100CC00010BD000000100140420000004400002060
:100CD00004000020342C0140044910B50A68024287
:100CE00002D00860FFF7C0FF10BD000014040140EF
:100CF0002DE9F84FDFF894A100220AF1040B144605
:100D00004FF0010C4FF00F090BF1040E0B680CFAB9
:100D100004F52B40AB4271D15D4E4F68A7EB06083E
:100D2000B7422BD00DDC032F34D005DC37B3012FB5
:100D300019D0022F2FD11BE0112F16D0122F2AD13C
:100D400019E0B8F5881F19D006DCB8F5803F15D03A
:100D5000B8F5801F1FD111E0B8F5001F0ED0B8F50F
:100D6000041F18D10AE0CA6815E0CA68121D12E013
:100D7000CA6808320FE0CA680C320CE08A682AB1EF
:100D8000012A4FF0080203D0456104E0042202E08A
:100D9000056100E00022FF2B01D8074601E000F1C9
:100DA00004074FEA840601D9A6F120063D6809FA36
:100DB00006F825EA080502FA06F645EA06053D604A
:100DC0004D68ED005CD5334DAE6946F00106AE616D
:100DD000AD6924F0030605F0010500952E4D771945
:100DE000BD68A607360F09FA06F825EA0805DFF8F8
:100DF000AC80404503D14FF0000810E040E0DFF840
:100E0000A080404502D14FF0010808E0DFF894804F
:100E1000404502D14FF0020801E04FF0030808FA04
:100E200006F848EA0508C7F808804D68ED0305D5BF
:100E3000DAF800501D43CAF8005004E0DAF8006008
:100E40009E43CAF800604D68DBF80060AD035D4664
:100E500001D51E4300E09E432E604D68DEF8006021
:100E6000ED02754601D51E4300E09E432E604D689D
:100E7000AD020D4D2E6801D51E4300E09E432E604D
:100E8000641C102CFFF442AFBDE8F88F0004014051
:100E90000000111000100240000001400008014055
:100EA000000C0140001001400C0401408068084023
:100EB00000D0012070470AB1016170470904FBE7C7
:100EC00001480068704700000C00002002480168DB
:100ED000491C0160704700000C000020074810B555
:100EE000016841F010010160032000F087F8002044
:100EF00000F006F800F016F8002010BD00200240B7
:100F000010B5044600F05EFA4FF47A71B0FBF1F0D0
:100F100000F09EFD00222146501E00F04FF80020F8
:100F200010BD00001D4808B5816941F001018161D3
:100F3000806900F001000090032000F05FF80022BB
:100F400011466FF00B0000F039F8002211466FF0E7
:100F50000A0000F033F8002211466FF0090000F09B
:100F60002DF800221146501F00F028F800221146EB
:100F7000101F00F023F800221146901E00F01EF80A
:100F800000221146501E00F019F80548416821F072
:100F9000E06141F08061416008BD00000010024046
:100FA0000000014000F01F02012191404009800033
:100FB00000F1E020C0F8001170470000F0B40E4BC3
:100FC0001B680C46C3F30223C3F10705042D00D9A7
:100FD0000425191D072901D2002300E0DB1E01268C
:100FE00006FA05F1491E214099409E40761E1640A2
:100FF0003143F0BC01F0A4B90CED00E0064900F06B
:10100000070208684FF6FF03184040EA0220034A2F
:1010100010430860704700000CED00E00000FA0586
:1010200010B533A401461DCC86B08DE81D0034A058
:10103000344C006804900020012931D0022948D0A6
:1010400010292BD161682268D20127D54FF4701284
:1010500092FAA2F201F47010B2FA82F2D040C903FF
:101060001DF8000010D561684FF4003292FAA2F228
:1010700001F40031B2FA82F2D14004AA515C224A52
:10108000B2FBF1F1484301E020494843616849025D
:1010900004D440005FF00301B0FBF1F006B010BDD6
:1010A000226AC2F30121012903D1920701D5C803A5
:1010B000F4E7022905D1626A920702D549F6404059
:1010C000ECE70329EAD121688903E7D54FF22440F0
:1010D000E4E700F095F961684FF4804292FAA2F2D9
:1010E00001F44041B2FA82F2D140491C4900D3E7F1
:1010F00002030405060708090A0B0C0D0E0F101059
:10110000010200000010024000127A0000093D00B8
:101110002DE9F84305460078454CC00774D0E069D6
:1011200040F08050E061E069424E00F08050009055
:10113000306840F480703060FFF7C2FE074604E07C
:10114000FFF7BEFEC01B642833D83068C005F7D552
:10115000206A10F4407051D0A98801F44071814296
:101160004CD0206A0126310491FAA1F2B2FA82F23F
:101170009300314A20F440701344C3F8006491FA9C
:10118000A1F1B1FA81F102EB81010023C1F8003431
:101190002062C00732D0FFF793FE074641F288393C
:1011A0004FF0020808E000BFFFF78AFEC11B494567
:1011B00002D90320BDE8F88398FAA8F1B1FA81F1C9
:1011C00041F040014046B6EB511F01D121680BE0D0
:1011D00090FAA0F1B1FA81F141F04001B0EB511F5A
:1011E00001D1216A00E0616A98FAA8F0B0FA80F0B3
:1011F00000F01F0206FA02F00142D5D0206A6968A9
:1012000020F44070084320622878800705D5606884
:10121000A96820F44040084360602878C00605D5DE
:101220006068E96820F48000084360600020C1E73E
:101230000010024000700040000042422DE9F047DB
:10124000DFF8708105460E46D8F8000000F0070070
:10125000B0420CD2D8F8001021F007013143C8F891
:101260000010D8F8000000F00700B04277D12878CD
:10127000514C800705D56068A96820F0F00008434C
:1012800060602878C00759D06968012001290DD015
:10129000022929D05FF0020393FAA3F2B2FA82F294
:1012A00042F02002520904D0226803E04FF40033D8
:1012B000F2E7626A93FAA3F3B3FA83F303F01F032E
:1012C000984002424BD0606820F003000843606001
:1012D000FFF7F6FD6968074641F2883001290DD015
:1012E0000229814617D025E04FF00073D4E700BFF4
:1012F000FFF7E6FDC11B494501D918E0814660684A
:10130000C0F381000128F3D118E000BFFFF7D8FD3A
:10131000C11B49450BD86068C0F381000228F5D194
:101320000CE000BFFFF7CCFDC11B494502D90320EB
:10133000BDE8F087606810F00C0FF3D1D8F800100A
:10134000404601F00701B1420BD9016821F00701C5
:1013500031430160006800F00700B04201D0012075
:10136000E6E72878400705D56068E96820F4E06082
:10137000084360602878000706D56068296920F472
:10138000605040EAC100606000F052F86168F022ED
:1013900092FAA2F201F0F001B2FA82F2D140074AC9
:1013A000515CC840064908600020FFF7A9FD0020F5
:1013B000BEE700000020024000100240442F000859
:1013C0000000002001480068704700000000002075
:1013D00008480949006849684FF4E06292FAA2F2AD
:1013E00001F4E061B2FA82F2D140044A515CC84093
:1013F000704700000000002000100240542F000839
:1014000008480949006849684FF4605292FAA2F20C
:1014100001F46051B2FA82F2D140044A515CC840F2
:10142000704700000000002000100240542F000808
:1014300010B519A385B00FCB8DE80F001AA01B4B78
:10144000006804905A681A4802F00C0104291DD063
:1014500008291BD14FF4701494FAA4F402F470110B
:10146000B4FA84F4E140D2031DF8011010D55A6893
:101470004FF4003393FAA3F302F40032B3FA83F388
:10148000DA4004AB9A5CB0FBF2F0484305B010BD03
:1014900008484843FAE70000020304050607080964
:1014A0000A0B0C0D0E0F101001020000001002407C
:1014B00000127A0000093D002DE9F84F044600783B
:1014C000F74DC0074FF0010625D068687704C0F3D8
:1014D0008100012807D06868C0F3810002281BD171
:1014E0006868C00318D597FAA7F0B0FA80F040F00A
:1014F0002000400901D0286800E0686A97FAA7F147
:10150000B1FA81F101F01F0106FA01F108425ED043
:10151000606800287CD05AE06068B0F5803F0BD04E
:1015200010B1B0F5A02F11D0286820F480302860C9
:10153000286820F4802002E0286840F48030286089
:10154000606828B3FFF7BCFC80460BE0286840F4D5
:1015500080202860F0E700BFFFF7B2FCA0EB080096
:10156000642871D897FAA7F0B0FA80F040F0200014
:10157000400901D0286800E0686A97FAA7F1B1FA3B
:1015800081F101F01F0106FA01F10842E4D01EE0EA
:10159000FFF796FC804605E0FFF792FCA0EB080001
:1015A0006428DED897FAA7F0B0FA80F040F0200067
:1015B000400901D0286800E0686A97FAA7F1B1FAFB
:1015C00081F101F01F0106FA01F10842E4D120780F
:1015D000DFF8D08280074FF000094FF002075BD59B
:1015E00068684FF0F80B10F00C0F07D06868C0F374
:1015F000810002281CD16868C00319D497FAA7F0AB
:10160000B0FA80F040F02000400902D0286801E0E4
:101610008BE0686A97FAA7F1B1FA81F101F01F0136
:1016200006FA01F108422CD0206901287DD128E07A
:10163000206990B396FAA6F0B0FA80F048F82060DE
:10164000FFF73EFC824607E011E100BFFFF738FCE0
:10165000A0EB0A00022884D897FAA7F0B0FA80F02D
:1016600040F02000400901D0286800E0686A97FA3D
:10167000A7F1B1FA81F101F01F0106FA01F1084268
:10168000E4D028689BFAABF26169B2FA82F220F0EA
:10169000F80091400843286025E0FFE796FAA6F19C
:1016A000B1FA81F148F82190FFF70AFC824605E083
:1016B000FFF706FCA0EB0A000228CCD897FAA7F0A7
:1016C000B0FA80F040F02000400901D0286800E026
:1016D000686A97FAA7F1B1FA81F101F01F0106FAE1
:1016E00001F10842E4D1207800076ED5A069B8B3B3
:1016F00096FAA6F0B0FA80F008EB8000C0F880649B
:10170000FFF7DEFB824605E0FFF7DAFBA0EB0A00FD
:101710000228A0D897FAA7F0B0FA80F040F0600055
:10172000B6EB501F02D128680CE062E197FAA7F0EF
:10173000B0FA80F040F06000B7EB501F01D1286A8A
:1017400000E0686A97FAA7F1B1FA81F101F01F0190
:1017500006FA01F21042D7D00120FFF779FA34E0FF
:10176000FFE796FAA6F1B1FA81F108EB8101C1F821
:101770008094FFF7A5FB824606E000BFFFF7A0FBC1
:10178000A0EB0A00022872D897FAA7F0B0FA80F00E
:1017900040F06000B6EB501F01D128680BE097FACB
:1017A000A7F0B0FA80F040F06000B7EB501F01D115
:1017B000286A00E0686A97FAA7F1B1FA81F101F0AE
:1017C0001F0106FA01F21042D8D12078400765D5F2
:1017D000E86940F08050E861E869DFF8CCB000F0DB
:1017E00080500090DBF8001041F48071CBF80010BD
:1017F000FFF766FB824605E0FFF762FBA0EB0A00FD
:10180000642834D8DBF80000C005F5D5E06801286D
:101810000AD008B1052813D0286A20F001002862F8
:10182000286A20F0040002E0286A40F001002862E3
:10183000E06841F2883B90B3FFF742FB82460BE041
:10184000286A40F004002862EEE700BFFFF738FB8B
:10185000A0EB0A0159450AD897FAA7F0B0FA80F030
:1018600040F04000B6EB501F02D128680CE0A3E026
:1018700097FAA7F0B0FA80F040F04000B7EB501FA5
:1018800001D1286A00E0686A97FAA7F1B1FA81F1FC
:1018900001F01F0206FA02F10842D7D031E005E05C
:1018A000001002400000424200700040FFF708FBB9
:1018B000824605E0FFF704FBA0EB0A0159457BD8FF
:1018C00097FAA7F0B0FA80F040F04000B6EB501F56
:1018D00001D128680BE097FAA7F0B0FA80F040F049
:1018E0004000B7EB501F01D1286A00E0686A97FA00
:1018F000A7F1B1FA81F101F01F0206FA02F10842E4
:10190000D8D1E06980B36968C1F38101022970D040
:101910004FF080714F000228484609D091FAA1F19A
:10192000B1FA81F148F82100FFF7CAFA044669E0EC
:101930008A4691FAA1F1B1FA81F1C14648F8210035
:10194000FFF7BEFA804605E0FFF7BAFAA0EB080001
:10195000022854D897FAA7F0B0FA80F040F020009F
:10196000400902D0286801E061E0686A97FAA7F1AF
:10197000B1FA81F101F01F0106FA01F10842E3D149
:10198000206AB0F5803F05D16868A16820F4003076
:1019900008436860D4E908010843696821F47411B8
:1019A000084368609AFAAAF0B0FA80F049F820601B
:1019B000FFF786FA044606E021E000BFFFF780FA51
:1019C000001B02281BD897FAA7F0B0FA80F040F06D
:1019D0002000400901D0286800E0686A97FAA7F162
:1019E000B1FA81F101F01F0106FA01F10842E5D0D8
:1019F0001DE01EE0FFF764FA001B022802D9032055
:101A0000BDE8F88F97FAA7F0B0FA80F040F0200018
:101A1000400901D0286800E0686A97FAA7F1B1FA96
:101A200081F101F01F0106FA01F10842E2D1002024
:101A3000E6E70120E4E74FF0E0210428086903D03D
:101A400020F004000861704740F00400FAE7704796
:101A500010B5401EB0F1807F01D3012010BD4FF0C2
:101A6000E02460610F21601700F06AFC0020A06193
:101A700007202061002010BD10B5FFF7E8FF10BD62
:101A800030B590F83820012A19D0012200F8382FFB
:101A900002234370D1E900342343D1E902452C43AA
:101AA00023430C6923434C69896923430B4350F852
:101AB000381C4B64427000210170084630BD022082
:101AC00030BD30B590F83820012A20D0012280F8AE
:101AD0003820022380F8393003685C6824F07004F1
:101AE0005C6003685C680D682C435C6003689C68FC
:101AF00024F080049C6003689C6849680C439C60E7
:101B000080F83920002180F83810084630BD0220C6
:101B100030BD10B5040003D094F8390010B107E0CF
:101B2000012010BD002084F83800204600F00CF899
:101B3000022084F83900211D206800F073FC012088
:101B400084F83900002010BD08B5006806498842B5
:101B500008D10648816941F400618161806900F41F
:101B60000060009008BD0000002C01400010024001
:101B700070B5044690F83800012817D0012584F884
:101B80003850022084F839002068826822F07702F9
:101B900022F47F4282600868502837D00DDC20286C
:101BA00059D005DC88B3102841D151E0022070BD26
:101BB000302853D040283AD13FE060282ED07028FA
:101BC0000BD0B0F5805F03D0B0F5005F2FD110E0EF
:101BD0002068816821F0070115E0CB68D1E9012177
:101BE000206800F054FC2168886840F07700886025
:101BF0001DE0CB68D1E90121206800F048FC206895
:101C0000816841F48041816011E01EE0CA68496842
:101C1000206800F0F1FC5021206806E0CA6849689D
:101C2000206800F0FAFC6021206800F03AFC84F89B
:101C30003950002084F8380070BDCA6849682068AF
:101C400000F0DAFC40212068EFE700212068ECE793
:101C500010212068E9E720212068E6E7302120688C
:101C6000E3E700001FB500680649884208D18015E7
:101C7000009002200190039069460348FFF738F86E
:101C80001FBD0000002C01400008014070B5044653
:101C900090F838000D4601280DD0012684F83860F0
:101CA000022084F8390042B1042A18D0082A2AD028
:101CB0000C2A4DD139E0022070BD206800F0FAFBFB
:101CC0002068816941F0080181612068816921F003
:101CD00004018161206881692A69114311E020684B
:101CE00000F010FC2068816941F400618161206886
:101CF000816921F480618161206881692A6941EAF2
:101D00000221816124E0206800F028FC2068C1697C
:101D100041F00801C1612068C16921F00401C1617D
:101D20002068C1692A69114311E0206800F042FC73
:101D30002068C16941F40061C1612068C16921F472
:101D40008061C1612068C1692A6941EA0221C161DB
:101D500084F83960002084F8380070BD10B50400A4
:101D600003D094F8390010B107E0012010BD002025
:101D700084F83800204600F00CF8022084F839007E
:101D8000211D206800F04EFB012084F8390000205E
:101D900010BD704710B504460068012200F06CFBCE
:101DA00007492068884203D1416C41F400414164F5
:101DB0002068016841F001010160002010BD0000B1
:101DC000002C014010B504460068002200F054FBCE
:101DD000104B41F2111120688A10984209D1036A10
:101DE0000B4206D1036A134203D1436C23F4004330
:101DF00043642068036A0B4206D1016A114203D191
:101E0000016821F001010160012084F839000020FF
:101E100010BD0000002C014070B5040004D094F8FF
:101E20003900002510B106E0012070BD84F838505B
:101E3000204600F021F8022084F839002068C168AB
:101E400021F40051C160204600F0FAFB20680169CE
:101E500021F4904101612068416921F02A0141612A
:101E60002068C16841F40051C160E563012084F835
:101E70003900002070BD000010B50068114986B01F
:101E800088421DD11048816941F480418161806997
:101E90000E4C00F4804004904FF40070009002203B
:101EA00001900320039069462046FEF721FF0021A0
:101EB0002015CDE90001029169462046FEF718FF82
:101EC00006B010BD0038014000100240000801407B
:101ED0002DE9F047044690F8390099460D4601284F
:101EE00001D0222858D12DB322B394F8380001280C
:101EF00052D0012684F838600027E76394F839004F
:101F000022281AD05FF0120084F83900A284E284FB
:101F10004FF48058E08C4B46401EE084A0684FF0A0
:101F2000000240454FF08001204613D100F040FCF4
:101F300008BB04E00120BDE8F0873220E4E72888F0
:101F40002168C0F308004860206908B16D1C08E0F2
:101F5000AD1C06E000F02CFC68B9216815F8010BF7
:101F60004860E08C0028D5D14B4600224021204615
:101F700000F01EFC08B10320DDE794F83900322898
:101F800006D084F8396000BF84F838700020D2E7AA
:101F9000222084F83900F7E70220CCE7FEE710B5ED
:101FA000382000F067F80C2000F064F8062000F0FC
:101FB00061F8BDE81040012000F05CB809B1403084
:101FC000C0B240F0800000F055B810B51446FFF7DD
:101FD000F5FF2046BDE8104000F07EB870B514460D
:101FE0000D460646FFF7EAFF3034E2B22946304696
:101FF000BDE87040FFF7E9BF70B51D461446FFF716
:10200000DDFF03E014F8010B00F066F86D1EEDB281
:10201000F8D270BD70B51648016841F0FF0101604B
:10202000134C81140C3C00222046FEF744FF012291
:10203000D1022046FEF73FFF01229602314620469C
:10204000FEF739FF012231462046FEF734FF80219A
:102050002046FEF72BFF05460120FEF7F9FD002282
:1020600031462046FEF727FF002DEBD170BD000062
:102070000C0C014070B50446FFF7CCFF154D002253
:102080004FF480512846FEF716FF0022E914284637
:10209000FEF711FF2E15002231462846FEF70BFFF2
:1020A000012000F099FC012231462846FEF703FF8B
:1020B00008480C30016844F47F421140016000225E
:1020C00031462846FEF7F7FEBDE870404FF4C87071
:1020D00000F082BC000C014070B50446FFF79AFF87
:1020E000124D012211032846FEF7E5FE0022E914F5
:1020F0002846FEF7E0FE1E2000F06EFC012296024C
:1021000031462846FEF7D7FE08480C30016844F4F3
:102110007F4211400160002231462846FEF7CBFE87
:10212000BDE870404FF4C87000F056BC000C014090
:10213000FEB5144812490125016089150024456146
:10214000C0E90214022606614FF460214460C0E930
:102150000651FEF7CDFB00B1FEE7CDE9004569462B
:1021600008480294FEF70AFB00B1FEE7CDE90056ED
:1021700069460448FEF702FB002800D0FEE7FEBDDA
:1021800000240140140000202DE9F0433E4885B0B2
:10219000816941F010018161816901F010010491B0
:1021A000816941F004018161816901F004010491B8
:1021B000816941F0080181618069344D00F00800B7
:1021C000049001220F212846FEF775FEDFF8C0803B
:1021D000002210214046FEF76EFEDFF8B890002284
:1021E00041F6FF414846FEF766FE4FF46047012284
:1021F00039464846FEF75FFE0F200124CDE9000472
:102200000326694603962846FEF772FD0C200090CF
:10221000214801900020029069464046FEF768FD83
:102220001020CDE900040225694603954046FEF7DB
:102230005FFDFF20009011200190694603954846FC
:10224000FEF756FDF810CDE90004694603954846AF
:10225000FEF74EFDCDE90074694648460396FEF749
:1022600047FD002211460820FEF7A8FE0820FEF7D1
:1022700099FE002211460920FEF7A0FE0920FEF774
:1022800091FE05B0BDE8F08300100240001001404F
:1022900000080140000C01400000111010B5264854
:1022A00094B02449016007210024C0E9011440F2E0
:1022B000E731C0E903144461FFF72BFC00B1FEE7EE
:1022C0004FF480500E900EA91B48FFF751FC00B14F
:1022D000FEE71948FFF742FD00B1FEE7129412A98C
:1022E00015481394FFF7EDFB00B1FEE76020CDE940
:1022F00000040294039404940594002269460E4855
:102300000694FFF7C3FC00B1FEE707940894099414
:102310004FF400500A94CDE90B4007A906480D94EC
:10232000FFF7AEFB00B1FEE70348FFF79BFC14B0DC
:1023300010BD0000002C014044000020FEE7704763
:102340000907090E002806DA00F00F0000F1E0206E
:1023500080F8141D704700F1E02080F800147047E9
:102360007047704710B5FEF7B1FDBDE81040FFF7AC
:1023700083BB30B593B00120022504900095102056
:102380000024059007946846FFF796F800B1FEE731
:102390000F20CDE90A040C940D9400210AA80E9494
:1023A000FEF74CFF00B1FEE70FA80F951194FEF762
:1023B000AFFE00B1FEE7FFF705F84FF47A71B0FB0E
:1023C000F1F0FFF745FB0420FFF735FB0022114633
:1023D000501EFEF7F3FD13B030BD00000D4801683C
:1023E00041F00101016041680B4A11404160016800
:1023F0000A4A11400160016821F4802101604168AE
:1024000021F4FE0141604FF41F0181600449C003C3
:1024100008607047001002400000FFF8FFFFF6FE62
:1024200008ED00E070B50268114B124C4FF0804689
:10243000984203D0B04201D0A04203D122F07005EF
:102440004A682A43984203D0B04201D0A04203D147
:1024500022F44074CA68224302608A68C2620A6831
:102460008262984201D1096901630121416170BD15
:10247000002C01400004004010B50123046A8B4089
:102480009C430462036A8A401343036210BD10B583
:10249000846842EA032224F47F440A432243826090
:1024A00010BD826822F070020A4342F00701816089
:1024B0007047000030B5026A22F001020262026A2F
:1024C0004368846924F073050C682C4322F00205EC
:1024D0008A682A430A4DA8420BD122F00805CA682F
:1024E00023F440732A434D6922F004021D438B6993
:1024F0002B434360846149684163026230BD000040
:10250000002C014030B5026A22F010020262026A19
:10251000436884690D6824F4E64444EA05248D6820
:1025200022F0200242EA05120B4DA8420ED1CD68DE
:1025300022F0800242EA05124D6923F4406343EA27
:1025400085038D6922F0400243EA8503436084617C
:1025500049688163026230BD002C014030B5026AD7
:1025600022F480720262036A4268C46923F4007331
:1025700024F073050C682C438D6843EA05230C4D49
:10258000A8420ED1CD6823F4006343EA05234D69C8
:1025900022F4405242EA05128D6923F4806342EA34
:1025A00005124260C4614968C163036230BD000026
:1025B000002C014030B5026A22F480520262046AA3
:1025C0004268C3690D6823F4E64343EA05238D6836
:1025D00024F4005444EA0534064DA84204D14D6960
:1025E00022F4804242EA85124260C3614968016474
:1025F000046230BD002C014010B5036A046A24F067
:1026000001040462846924F0F00444EA021423F013
:102610000A020A438461026210BD10B5036A23F006
:10262000100303628369046A23F4704343EA0232AD
:1026300024F0A00343EA01118261016210BD000091
:102640002DE9F041044600680169E26821F4405137
:10265000114301612169A068084361690843216849
:10266000CA6841F20C639A430243CA602068416918
:10267000A26921F44071114341614C4920686425ED
:10268000322688423CD1FEF7BBFE00EBC00101EBD5
:10269000001061688900B0FBF1F7FEF7B1FE00EBB6
:1026A000C00101EB00106168B0468900B0FBF1F099
:1026B000B0FBF5F06FF01801484307EB800106EB23
:1026C0000110B0FBF5F000F0F006FEF799FE00EB0C
:1026D000C00101EB001061688900B0FBF1F0B0FBB4
:1026E000F5F006EB0016FEF78BFE00EBC00101EBE8
:1026F000001061688900B0FBF1F7FEF781FE3BE056
:10270000FEF766FE00EBC00101EB00106168890076
:10271000B0FBF1F7FEF75CFE00EBC00101EB00102F
:102720006168B0468900B0FBF1F0B0FBF5F06FF0E6
:102730001801484307EB800106EB0110B0FBF5F0F0
:1027400000F0F006FEF744FE00EBC00101EB0010C4
:1027500061688900B0FBF1F0B0FBF5F006EB001604
:10276000FEF736FE00EBC00101EB00106168890046
:10277000B0FBF1F7FEF72CFE00EBC00101EB0010FF
:1027800061688900B0FBF1F0B0FBF5F06FF0180163
:10279000484307EB800108EB0110B0FBF5F021681E
:1027A00000F00F0030448860BDE8F081003801403F
:1027B0002DE9F0471D4690460E460446FEF780FB85
:1027C00007465FEA08004FF000094FF0010808D003
:1027D00030E0681C05D095B1FEF772FBC01BA84223
:1027E0000DD82068006836EA0000F2D127E0681CA6
:1027F00020D025B1FEF764FBC01BA8421AD920687F
:10280000C16821F08001C1602068C16821F0200109
:10281000C1602068C16821F48071C160206841698D
:1028200021F00101416184F8398084F83890032057
:10283000BDE8F0872068006836EA0000D7D00020A5
:10284000F6E7FEE70FB4054B10B503A9044A02985A
:1028500000F018F810BC5DF814FB00008D2C000887
:102860001000002002E008C8121F08C1002AFAD197
:1028700070477047002001E001C1121F002AFBD100
:10288000704700002DE9FF4F89B09B4604460025A4
:1028900006E025280BD05A460B999047641C6D1C06
:1028A00020780028F5D10DB02846BDE8F08F00272C
:1028B000B8460122474900E0074314F8013F203B96
:1028C00002FA03F00842F7D120782E2819D114F823
:1028D000010F47F004072A280ED06FF02F0220784E
:1028E000A0F1300109290CD808EB880102EB410165
:1028F00000EB0108641CF2E70A98641C50F8048B92
:102900000A9020780028CED0642808D0692806D004
:1029100075281ED05A460B9990476D1C58E00A99AD
:102920004FF00A0901C90A91002802DA40422D211C
:1029300002E0390504D52B218DF82010012103E098
:10294000F90704D02021F7E78A4608AE0DE0002100
:10295000FAE70A994FF00A0901C90A91F7E74946CF
:10296000FDF7D1FC303106F8011D0028F7D1ADEBA1
:10297000060000F12009780701D44FF00108C8458E
:1029800002DDA8EB090000E000208046002706E0F9
:1029900008A85A46C05D0B9990476D1C7F1C57458F
:1029A000F6DB04E030205A460B9990476D1CB8F1D5
:1029B0000001A8F10108F5DC05E016F8010B5A4604
:1029C0000B9990476D1CB9F10001A9F10109F4DCE4
:1029D000641C65E70928010010B50446FEF7F2FC07
:1029E0000349B0FBF1F16143491EFDD210BD000067
:1029F00000093D002DE9F84F16460F460446042312
:102A000036A20021FFF7F8FA6425B7FBF5F0C2B251
:102A1000201D0090C0B20021FFF7E0FA04F1050B81
:102A20000BF0FF002E220021FFF7CFFAB7FBF5F0E5
:102A300005FB10714FF00A08B1FBF8F204F1060A29
:102A40000AF0FF000021FFF7C9FAB7FBF5F005FB1C
:102A50001071B1FBF8F208FB121204F1070909F03A
:102A6000FF000021FFF7BAFA04F10807F8B2562276
:102A70000021FFF7AAFA04231AA201212046FFF73A
:102A8000BBFAB6FBF5F0C2B200980121C0B2FFF765
:102A9000A5FA0BF0FF002E220121FFF796FAB6FBF4
:102AA000F5F005FB1061B1FBF8F20AF0FF0001211F
:102AB000FFF794FAB6FBF5F005FB1061B1FBF8F2F5
:102AC00008FB121209F0FF000121FFF787FAF8B2A4
:102AD000BDE8F84F41220121FFF777BA566F6C3AF3
:102AE000000000004375723A000000002DE9F04735
:102AF00089460546052348A2FFF77EFAFDF762FDE9
:102B000080B2474CA0F540715239A08071D00028A6
:102B10006FD0A07820B10020A0700120FFF7AAFAA2
:102B2000A1884FF06408B1FBF8F0C2B26E1DF0B29C
:102B30004946FFF753FAA1880A27B1FBF8F208FBD0
:102B40001210B0FBF7F2A81DC0B24946FFF746FAD3
:102B5000E81DC0B22E224946FFF737FAA188B1FB23
:102B6000F8F208FB1210B0FBF7F107FB1102F01CA2
:102B7000C0B24946FFF732FA301DC0B2DF224946E3
:102B8000FFF723FA0A35E8B243224946FFF71DFA58
:102B9000A088B0FBF7F123A0FFF754FEA088244DD6
:102BA000B0F52F7F0AD3002201212846FEF783F9D2
:102BB000F0B205231FA24946FFF71EFAA088A0F530
:102BC000FA70C8280AD2002201212846FEF773F9BC
:102BD000F0B2052319A24946FFF70EFAA088B0F516
:102BE000FA7F16D22846BDE8F04701221146FEF7CB
:102BF00062B90120A07000210F2312A20846FFF73E
:102C0000FBF9BDE8F0470B23012112A20020FFF7DA
:102C1000F3B9BDE8F087000054656D703A0000001C
:102C20000400002054656D703A25640D0A00000010
:102C30000010014048696768202020004C6F772011
:102C40002020000052656164696E6720445331386A
:102C500042323000506C65617365205761697400C1
:102C600010B50948FDF794FF64210748FDF7F8FE09
:102C70000548FDF737FE800504D50348FDF734FE0F
:102C800080B210BD002010BD1400002013B54FF617
:102C9000FF73012269460248FFF71AF900981CBD2C
:102CA000800000201FB50024009425460194FEF703
:102CB00015F9FFF75EFBFFF767FAFFF739FA7D4872
:102CC0007B4901604FF41651C0E901140C21C46026
:102CD000C0E904418461C461FFF79EF800B1FEE7DA
:102CE000FFF7DCFAFFF75BF9FDF79AFC0A20FDF726
:102CF000AFFF00210C2370A20846FFF77DF91023D7
:102D000071A201210020FFF777F94FF47A70FDF7E7
:102D10009FFF0120FFF7AEF9DFF8BC91DFF8BC811F
:102D2000DFF8BCB1DFF8BCA100246E46FFF798FFC6
:102D300046F82400641CE4B2022CF7D30098FDF797
:102D400086FA694C694F22463B46FDF7FDF9FDF7CF
:102D5000BEFA06460198FDF77AFA22463B46FDF791
:102D6000F3F9FDF7B4FA0746FDF77EFA84B2039053
:102D70003046FDF779FA81B2029022460020FFF733
:102D800039FE5C46A64210DB00224FF40041484663
:102D9000FEF791F8012291034846FEF78CF80523CF
:102DA00053A200210A20FFF727F9464510DC002234
:102DB0004FF480414846FEF77EF80122D103484691
:102DC000FEF779F805234CA200210A20FFF714F939
:102DD00042484B49C043304488420FD201229103FC
:102DE0004846FEF768F80122D1034846FEF763F82B
:102DF000052344A200210A20FFF7FEF8A74204DAC7
:102E0000012251034846FEF756F8A7420BDB002289
:102E10004FF400514846FEF74EF805233BA200212F
:102E20000A20FFF7E9F8A64208DA464506DDA74280
:102E300004DABAF80410B1F52F7F21D36D1C0121FB
:102E4000ADB28AF80010294632A0FFF7FBFC0A2D2C
:102E50001ED3334C00252A4604212046FEF72BF8CA
:102E6000012202212046FEF726F8002208212046F2
:102E7000FEF721F80F4800213C38FEF7A3FF07E0DA
:102E800000218AF80010012204212548FEF713F8DA
:102E9000039882B2029881B222A0FFF7D3FC0121ED
:102EA0000920FFF723FE23A0FFF7CCFC3CE700003E
:102EB0000038014080000020414320636F6E746140
:102EC00063746F7200000000436F6E74726F6C2049
:102ED00073797374656D0000000C01400000344389
:102EE00000004843040000207B14AE47E17AB43F61
:102EF0005648696768000000564C6F772000000054
:102F0000FFFF1300202020202000000043486967B5
:102F100068000000434E543D25640D0A0000000087
:102F200000100140766F6C3A25642C6375723A2567
:102F3000640D0A003D3D3D3D3D3D3D3D3D3D3D3D3A
:102F40000D0A000000000000000000000102030460
:102F50000607080900000000010203047C2F000896
:102F6000000000201400000064280008902F0008D2
:102F700014000020AC0400007428000800A24A04D9
:102F80000000010000000000000000000000000040
:04000005080000ED02
:00000001FF
